:100000000C945E000C9486000C9486000C94860080
:100010000C9486000C9486000C9486000C94860048
:100020000C9486000C9486000C9486000C94C303F8
:100030000C9486000C9486000C9486000C94860028
:100040000C9421030C9486000C9491030C946B0384
:100050000C9486000C9486000C9486000C94860008
:100060000C9486000C948600000000080002010039
:100070000003040700000000000000000000000072
:10008000250028002B0000000000240027002A0083
:10009000040404040404040402020202020203032E
:1000A0000303030301020408102040800102040836
:1000B00010200102040810208404080711241FBE28
:1000C000CFEFD8E0DEBFCDBF11E0A0E0B1E0E4EBC0
:1000D000F1E102C005900D92A634B107D9F723E0F3
:1000E000A6E4B1E001C01D92A633B207E1F710E02B
:1000F000CDE5D0E004C02197FE010E947D07CC35FC
:10010000D107C9F70E9414050C94CD080C94000087
:100110000895089590E0FC01EC55FF4F2491FC01F7
:10012000E057FF4F8491882399F090E0880F991F42
:10013000FC01EA57FF4FA591B491FC01E458FF4F31
:10014000859194918FB7F894EC91E22BEC938FBF4B
:10015000089590E0FC01E859FF4F3491FC01EC5503
:10016000FF4F2491FC01E057FF4FE491EE2309F487
:100170003BC0332339F1333091F038F43130A9F0FA
:10018000323001F584B58F7D12C0373091F03830B0
:10019000A1F03430B9F4809180008F7D03C080914C
:1001A00080008F77809380000DC084B58F7784BDE9
:1001B00009C08091B0008F7703C08091B0008F7D1F
:1001C0008093B000F0E0EE0FFF1FE458FF4FA591C1
:1001D000B4918FB7F894EC91611103C020952E2350
:1001E00001C02E2B2C938FBF0895CF92DF92EF92F8
:1001F000FF920F931F93CF93DF936C017A018B01D2
:10020000C0E0D0E0CE15DF0589F0D8016D918D01F9
:10021000D601ED91FC910190F081E02DC601099588
:10022000892B11F47E0102C02196ECCFC701DF912A
:10023000CF911F910F91FF90EF90DF90CF90089595
:10024000FC01918D828D981761F0828DDF01A80FDE
:10025000B11D5D968C91928D9F5F9F73928F90E000
:1002600008958FEF9FEF0895FC01918D828D98176F
:1002700031F0828DE80FF11D858D90E008958FEFAC
:100280009FEF0895FC01918D228D892F90E0805C75
:100290009F4F821B91098F739927089582E692E000
:1002A0000E94420121E0892B09F420E0822F089569
:1002B000FC01848DDF01A80FB11DA35ABF4F2C9103
:1002C000848D90E001968F739927848FA689B789D2
:1002D0002C93A089B1898C9180648C93938D848DAB
:1002E000981306C00288F389E02D80818F7D80837A
:1002F0000895EF92FF920F931F93CF93DF93EC013A
:1003000081E0888F9B8D8C8D981305C0E889F989D1
:10031000808185FD24C0F62E0B8D10E00F5F1F4FEE
:100320000F731127E02E8C8DE8120CC00FB607FC5E
:10033000FACFE889F989808185FFF5CFCE010E9447
:100340005801F1CF8B8DFE01E80FF11DE35AFF4FED
:10035000F0820B8FEA89FB898081806207C0EE8979
:10036000FF896083E889F98980818064808381E0E6
:1003700090E0DF91CF911F910F91FF90EF90089542
:10038000CF93DF93EC01888D8823C9F0EA89FB893C
:10039000808185FD05C0A889B9898C9186FD0FC033
:1003A0000FB607FCF5CF808185FFF2CFA889B98908
:1003B0008C9185FFEDCFCE010E945801E7CFDF91F0
:1003C000CF910895FC0190819C3080F5818128E8CF
:1003D00030E0281B310987FD3395220F331F220F90
:1003E000331F621773077CF0828128E532E0281BF7
:1003F000310987FD3395220F331F220F331F6217F8
:1004000073070CF49B0122503109220F331F4FB7A1
:10041000F894892F90E0FC01EE0FFF1F8E0F9F1FB5
:10042000FC01E150FD4F328321834FBF0895CF92ED
:10043000DF92EF92FF920F931F93CF93DF931F9260
:10044000CDB7DEB76C017A018901DC018C918C306B
:1004500008F06EC0862F69830E948A00F6018081B1
:10046000E82FF0E09F01220F331FE20FF31FE1504E
:10047000FD4F69816F739081907C692B608360E28E
:1004800072E0AB014E195F0957FF02C04D5F5F4F2D
:100490005595479555954795D60111964C9340E64D
:1004A00059E09A01201B310B37FF02C02D5F3F4FEF
:1004B0003595279535952795F60122836CE00E94A6
:1004C0007107FCE08F9FB001112440E050E09A01D9
:1004D000260F371FF901EE0FFF1F2E0F3F1FF901E7
:1004E000E150FD4F908196FD16C04F5F5F4F4C303D
:1004F000510569F781110FC01092800082E080934E
:1005000081001092850010928400B19A80916F0052
:10051000826080936F00D601EC91F0E0CF01880FEC
:10052000991FE80FF91FE150FD4F8081806480839F
:10053000F60180810F90DF91CF911F910F91FF9075
:10054000EF90DF90CF900895CF93DF93009779F0ED
:10055000FC0101900020E9F73197AF01481B590BCE
:10056000BC0182E692E00E94F500EC0102C0C0E00E
:10057000D0E042E050E066E271E082E692E00E9464
:10058000F5008C0F9D1FDF91CF9108950F931F935E
:10059000CF93DF9306E512E0C0E0D0E0F80161916F
:1005A0008F01CE010E9463072196CC30D105B1F7AF
:1005B000DF91CF911F910F9108950E94B0080F9382
:1005C0001F93CF93DF93C8E4D1E010E801E082E607
:1005D00092E00E944201892B29F182E692E00E947A
:1005E00020018D30A1F3E091470141E04E0F40938F
:1005F0004701F0E0E85BFE4F80838A3041F750E02E
:100600004150510968E471E08CEC91E00E94BE0811
:10061000FE01812F11928A95E9F71092470100930C
:100620004C02D5CFDF91CF911F910F9108950E9479
:100630004E0181110C94DF0208950C9418080C945B
:1006400018081F920F920FB60F9211242F933F9309
:100650008F939F93AF93BF938091520290915302D7
:10066000A0915402B09155023091510223E0230F22
:100670002D3720F40196A11DB11D05C026E8230FDA
:100680000296A11DB11D20935102809352029093B6
:100690005302A0935402B093550280914D02909161
:1006A0004E02A0914F02B09150020196A11DB11DC2
:1006B00080934D0290934E02A0934F02B09350024C
:1006C000BF91AF919F918F913F912F910F900FBE4E
:1006D0000F901F9018951F920F920FB60F92112432
:1006E0002F933F934F935F936F937F938F939F933A
:1006F000AF93BF93EF93FF9382E692E00E9458017D
:10070000FF91EF91BF91AF919F918F917F916F91E9
:100710005F914F913F912F910F900FBE0F901F90BF
:1007200018951F920F920FB60F9211242F938F934B
:100730009F93EF93FF93E0917202F0917302808197
:10074000E0917802F091790282FD12C0908180914F
:100750007B028F5F8F7320917C02821751F0E091B2
:100760007B02F0E0EE59FD4F958F80937B0201C034
:100770008081FF91EF919F918F912F910F900FBEEC
:100780000F901F9018951F920F920FB60F92112481
:100790002F933F934F935F936F937F938F939F9389
:1007A000AF93BF93EF93FF938091460187FF05C0FE
:1007B00010928500109284001BC020914601022EE9
:1007C000000C330B8091230390E02817390784F441
:1007D00080914601082E000C990BFC01EE0FFF1FC3
:1007E0008E0F9F1FFC01E150FD4F808186FD15C0DB
:1007F000809146018F5F8093460120914601022E31
:10080000000C330B8091230390E028173907C4F4C0
:10081000809146018C3064F113C080914601082E0E
:10082000000C990BFC01EE0FFF1F8E0F9F1FFC01A8
:10083000E150FD4F808160E08F730E94A900D8CF06
:100840008091840090918500049680349C4918F42E
:1008500080E49CE905C08091840090918500049615
:1008600090938900809388008FEF809346013BC06E
:10087000209184003091850080914601082E000C63
:10088000990BFC01EE0FFF1F8E0F9F1FFC01E15023
:10089000FD4F81819281820F931F909389008093F5
:1008A000880080914601082E000C990BFC01EE0F88
:1008B000FF1F8E0F9F1FFC01E150FD4F808186FFBF
:1008C00012C080914601082E000C990BFC01EE0F1E
:1008D000FF1F8E0F9F1FFC01E150FD4F808161E0E3
:1008E0008F730E94A900FF91EF91BF91AF919F91EB
:1008F0008F917F916F915F914F913F912F910F90C9
:100900000FBE0F901F90189510926502109264020E
:1009100088EE93E0A0E0B0E08093660290936702D7
:10092000A0936802B09369028AE091E09093630219
:100930008093620285EC90E090936F0280936E0248
:1009400084EC90E0909371028093700280EC90E0D0
:10095000909373028093720281EC90E09093750201
:100960008093740282EC90E09093770280937602F9
:1009700086EC90E0909379028093780210927B024B
:1009800010927C0210927D0210927E0282E291E02F
:1009900090932F0380932E03809123038C30A0F437
:1009A00091E0980F9093230380932B0390E0FC0138
:1009B000EE0FFF1F8E0F9F1FFC01E150FD4F88EBD4
:1009C0009BE09283818303C08FEF80932B03809100
:1009D00023038C30A0F491E0980F9093230380932D
:1009E000280390E0FC01EE0FFF1F8E0F9F1FFC01FC
:1009F000E150FD4F88EB9BE09283818303C08FEF32
:100A0000809328038AE191E0909325038093240347
:100A1000109227038DE0809326030E948A0060E0F5
:100A2000809126030C94A900CF93DF9300D000D0CF
:100A300000D0CDB7DEB7789484B5826084BD84B52C
:100A4000816084BD85B5826085BD85B5816085BDC9
:100A500080916E00816080936E0010928100809181
:100A60008100826080938100809181008160809309
:100A70008100809180008160809380008091B1002E
:100A800084608093B1008091B00081608093B00059
:100A900080917A00846080937A0080917A008260ED
:100AA00080937A0080917A00816080937A008091AF
:100AB0007A00806880937A001092C10036E5E32EB8
:100AC00032E0F32E00E010E0C8010E945B07D7017E
:100AD0008D937D010F5F1F4F0C301105A9F72091F9
:100AE00058023091590280915A0290915B02281766
:100AF000390701F548EE53E05093590240935802EC
:100B000020ED37E030935B0220935A028CED95E0A4
:100B1000909357028093560250935F0240935E0277
:100B2000309361022093600290935D0280935C0297
:100B30000E94C60220915A0230915B0240915802F5
:100B40005091590269E070E08BE293E00E94170235
:100B5000209160023091610240915E0250915F02EB
:100B60006AE070E088E293E00E941702609156020A
:100B7000709157028BE293E00E94E20160915C0267
:100B800070915D0288E293E00E94E20160E0809152
:100B900026030E94A9001092270380E8E8E4F1E010
:100BA000DF01282F1D922A95E9F7ECECF1E0DF0137
:100BB0001D928A95E9F710924701E0917202F09137
:100BC000730282E08083E0916E02F0916F021082E6
:100BD000E0917002F091710280E1808310927A02BC
:100BE000E0917602F091770286E08083E0917402D2
:100BF000F0917502808180618083E0917402F091B0
:100C00007502808188608083E0917402F0917502A2
:100C1000808180688083E0917402F0917502808108
:100C20008F7D80832E01B7E04B0E511C80E8282E6B
:100C300008EE13E090EDE92E97E0F92E2CEDC22E90
:100C400025E0D22E30904C02332009F49BC0109244
:100C50004C028CEC91E00E94A40269E271E08CEC01
:100C600091E00E9427079A838983FE0131965F01F4
:100C7000F501819191915F01892B61F069E271E049
:100C800080E090E00E942707D5018D939C93A414E7
:100C9000B50471F7A980BA80B5018BE291E00E949A
:100CA000B508892BF9F48B819C810E9409074C01BE
:100CB0008D819E810E9409075C01B4018BE293E063
:100CC0000E94E201B50188E293E00E94E201909265
:100CD000570280925602B0925D02A0925C020E947E
:100CE000C6023EC0B50181E391E00E94B508892BA0
:100CF00059F51093590200935802F0925B02E0926A
:100D00005A02D0925702C092560210935F0200938B
:100D10005E02F0926102E0926002D0925D02C092A7
:100D20005C020E94C60260915602709157028BE2EB
:100D300093E00E94E20160915C0270915D0288E2A2
:100D400093E00E94E2010CC0B50187E391E00E94AC
:100D5000B508892B21F48FE391E00E94A402312C85
:100D60000FB6F894DEBF0FBECDBF332021F083E471
:100D700091E00E94A402ECECF1E0DF01222D1D9233
:100D80002A95E9F72FB7F894809152029091530277
:100D9000A0915402B09155022FBF4091C8015091CB
:100DA000C9016091CA017091CB01841B950BA60B00
:100DB000B70B893E9340A105B10538F18091270317
:100DC000882341F060E0809126030E94A9001092E0
:100DD000270308C061E0809126030E94A90081E0FA
:100DE000809327032FB7F894809152029091530279
:100DF000A0915402B09155022FBF8093C8019093E7
:100E0000C901A093CA01B093CB010E9417031ACF66
:100E10000895FC0188279927E89421912032E9F36D
:100E2000293010F02E30C8F32B3241F02D3239F436
:100E3000689404C00E945307820F911D2191205392
:100E40002A30C0F31EF4909581959F4F089540E39A
:100E500053E00E942C070895FA01A191B0810097F8
:100E600019F41097E1F0CD01DC01CD010D900020C7
:100E700011F4C00113C0FB012191222319F02015A8
:100E8000D9F7F3CFFB012191201519F41E92119689
:100E900006C02223C1F70D900020A1F7D001FA016E
:100EA000A193B08308957AE0979F902D879F802D1E
:100EB000910D11240895F999FECF92BD81BDF89A44
:100EC000992780B50895262FF999FECF1FBA92BDB4
:100ED00081BD20BD0FB6F894FA9AF99A0FBE01961B
:100EE0000895991B79E004C0991F961708F0961B86
:100EF000881F7A95C9F780950895EE0FFF1F05901A
:100F0000F491E02D0994CF93DF938230910510F492
:100F100082E090E0E0913403F091350320E030E08E
:100F2000C0E0D0E0309711F1408151814817590756
:100F3000C0F04817590761F482819381209719F016
:100F40009B838A832BC0909335038093340326C000
:100F50002115310519F04217530718F49A01BE0103
:100F6000DF01EF010280F381E02DDCCF2115310597
:100F700009F1281B390B2430310590F412968D911C
:100F80009C9113976115710521F0FB019383828376
:100F900004C09093350380933403FD01329644C01E
:100FA000FD01E20FF31F81939193225031092D939C
:100FB0003C933AC02091320330913303232B41F408
:100FC00020910201309103013093330320933203C7
:100FD00020910001309101012115310541F42DB717
:100FE0003EB74091040150910501241B350BE0915F
:100FF0003203F0913303E217F307A0F42E1B3F0BEB
:101000002817390778F0AC014E5F5F4F241735077A
:1010100048F04E0F5F1F5093330340933203819388
:10102000919302C0E0E0F0E0CF01DF91CF9108950D
:101030000F931F93CF93DF93009709F48CC0FC01AB
:1010400032971382128200913403109135030115F7
:10105000110581F420813181820F931F2091320389
:10106000309133032817390779F5F0933303E09370
:10107000320371C0D80140E050E0AE17BF0750F412
:1010800012962D913C911397AD012115310509F16F
:10109000D901F3CF9D01DA0133832283608171810D
:1010A000860F971F8217930769F4EC012881398115
:1010B000260F371F2E5F3F4F318320838A819B810C
:1010C00093838283452B29F4F0933503E093340313
:1010D00042C01396FC93EE931297ED0149915991FA
:1010E0009E01240F351FE217F30771F4808191816F
:1010F000840F951F029611969C938E938281938103
:1011000013969C938E931297E0E0F0E0D80112962C
:101110008D919C911397009719F0F8018C01F6CFEF
:101120008D919C9198012E5F3F4F820F931F2091CC
:101130003203309133032817390769F4309729F4C3
:10114000109235031092340302C01382128210935E
:10115000330300933203DF91CF911F910F910895D4
:1011600081E090E0F8940C94CD08FB01DC018D91B6
:10117000019080190110D9F3990B0895FB01DC014E
:101180004150504048F001900D920020C9F701C035
:101190001D9241505040E0F7089510E0CDE5D0E0B9
:1011A00004C0FE010E947D072196CE35D107C9F704
:0411B000F894FFCFE1
:1011B400000036038000000000007901F5004201C0
:1011C40020013401C0010000000089001F03000059
:1011D400000088001D030D0A002000736574557318
:1011E4000072657365740076657273696F6E0031A1
:0611F4002E30004F4B00FD
:00000001FF
